:020000040800F2
:1000000000500020A90D0008310D0008330D000834
:1000100000000000000000000000000000000000E0
:10002000000000000000000000000000350D000886
:100030000000000000000000370D0008390D000826
:10004000F90D0008F90D0008F90D0008F90D000878
:10005000F90D0008F90D0008F90D0008410D000820
:10006000F90D0008F90D0008F90D0008F90D000858
:10007000F90D0008F90D0008F90D0008F90D000848
:10008000F90D0008F90D0008F90D00080000000046
:10009000F90D0008F90D0008F90D0008F90D000828
:1000A000F90D0008F90D0008F90D0008F90D000818
:1000B000F90D0008F90D0008F90D0008F90D000808
:1000C00010B5064C2378002B07D1054B002B02D02E
:1000D000044800E000BF0123237010BD040000208D
:1000E00000000000540E0008044B10B5002B03D094
:1000F0000349044800E000BF10BDC04600000000F6
:1001000008000020540E0008002243088B4274D3DC
:1001100003098B425FD3030A8B4244D3030B8B4208
:1001200028D3030C8B420DD3FF22090212BA030C11
:100130008B4202D31212090265D0030B8B4219D3F2
:1001400000E0090AC30B8B4201D3CB03C01A524112
:10015000830B8B4201D38B03C01A5241430B8B425A
:1001600001D34B03C01A5241030B8B4201D30B0343
:10017000C01A5241C30A8B4201D3CB02C01A52416A
:10018000830A8B4201D38B02C01A5241430A8B422D
:1001900001D34B02C01A5241030A8B4201D30B0216
:1001A000C01A5241CDD2C3098B4201D3CB01C01A30
:1001B000524183098B4201D38B01C01A524143093A
:1001C0008B4201D34B01C01A524103098B4201D328
:1001D0000B01C01A5241C3088B4201D3CB00C01A95
:1001E000524183088B4201D38B00C01A524143080D
:1001F0008B4201D34B00C01A5241411A00D2014632
:10020000524110467047FFE701B5002000F006F8A4
:1002100002BDC0460029F7D076E770477047C04658
:10022000FA210A4B70B5890005001868FFF76CFFCA
:1002300000F07AF804000120002C05D102382200D9
:10024000290000F037F8200070BDC04600000020F3
:100250004023084A10B5116800200B431360FFF7D4
:10026000DFFF041E03D100F055FD200010BD012466
:10027000FBE7C04600200240024A136801331360C6
:100280007047C04620000020014B18687047C046E8
:100290002000002070B50400FFF7F6FF631C5A1E13
:1002A00093410500E418FFF7EFFF401B8442FAD8A2
:1002B00070BD000070B58901002814DA0F23C0B2A8
:1002C0000340083B114A9B089B009B1803221040E7
:1002D0009040FC321500114085408140DC69AC4300
:1002E0002143D96170BD032583082840A840FC350F
:1002F0002E00074A9B009B18C0228640294081405F
:1003000092009C58B44321439950EBE700ED00E084
:1003100000E100E01F2318401E3B8340014A1360A8
:100320007047C04600E100E0094A431E01209342A5
:100330000DD8C021074A08485360036A09061B020A
:100340001B0A0B4303620020072390601360704771
:10035000FFFFFF0010E000E000ED00E0F0B5554ABF
:100360000B688218541EA24185B001930023053208
:100370000392019ADA4001D105B0F0BD01259D40FC
:10038000019A2A40009200D191E04A6894461022D6
:10039000644694432200013C022A1FD107240F2700
:1003A0001C40A400A740DA0892008218166ABE43D7
:1003B0000F69A7403E43166203245E00B440826882
:1003C000A243CC68B440224382606246D206D20F78
:1003D0009A404468AC432243426001E0012CEBD9CF
:1003E000032634005D00AC406246E4433240AA403C
:1003F000076827403A430260C26814408A68AA40EE
:1004000014436246C460D20051D501252A4C0F27FF
:10041000626B2A431D003540AD00AF406263274A3E
:100420009C08A400A418A268BA43A0270292FF0562
:100430000022B84210D0224F0132B8420CD0214FD6
:100440000132B84208D0204F3200B84204D01F4ECB
:100450000132B04200D0039AAA406746029D2A4367
:10046000A2601B4A009C1668009DE4433543FF03CD
:1004700001D435002540674615605668009D354318
:10048000BF0301D435002540674655609668009D3E
:100490003543FF0201D43500254067469560D56895
:1004A000009E2E43BF0201D425402E00D6600133AA
:1004B0005FE7C04600E4FFAF0010024000000140CB
:1004C0000004005000080050000C005000100050C4
:1004D00000040140002A01D0816170478162FCE77D
:1004E0004369594041617047044B10B55A69104245
:1004F00002D0586100F080FB10BDC04600040140EE
:100500000C22184B10B5D9680A40082A26D00C2AAC
:1005100006D0042A1AD11B68DB0621D4124810BD6C
:100520008A021248120F825C0902D868890F0131D1
:10053000C00304D50E485043FFF7E6FDEFE71B6804
:10054000DB0601D50B48F6E70748F4E780205B6837
:1005500000021B045B0F01339840E0E70448DEE72C
:100560000448DCE7001002400024F4007C0E000880
:1005700000127A0000093D00F0B5050087B00028A0
:1005800002D1012007B0F0BD0C23C24CE668E2683E
:100590001E4080235B021A4001920268D20741D4B8
:1005A0002B689B0700D587E02B68DB0628D5002E3B
:1005B00000D0E1E023689B0502D5EB69002BE0D079
:1005C0006268B5496B6A0A401A43626061682A6AC8
:1005D0000902090A12060A43626080225B0B01339A
:1005E00012029A401300E16800200A06AB49120F7C
:1005F0008A5CD340AA4A1360FFF712FE0028C1D1DB
:100600002B681B0700D5EEE02B685B0700D510E1D7
:100610002B689B0600D595E1AB6A002B00D0C4E1A6
:100620000020AFE7082E04D00C2E09D1019A002A31
:1006300006D023689B03B3D56B68002BB0D1A0E72D
:100640006A689A4211D1226813432360FFF71CFEA7
:1006500007008022236892021342A1D1FFF714FE03
:10066000C01B6428F5D903208CE7A021C9028A4267
:1006700005D180222168D2020A432260E3E7216883
:1006800088480140216021680B400593059B8649FD
:1006900023680B402360002AD8D1FFF7F5FD07003F
:1006A000802223689202134200D179E7FFF7ECFD24
:1006B000C01B6428F4D9D6E72022EB68134203D08C
:1006C0002168934311432160042E04D00C2E25D1C0
:1006D000019A002A22D12268520702D5002B00D1AC
:1006E0004FE761682A697148120201400A430921F3
:1006F000626022688A4313432360FFF701FFE368C7
:10070000664A1B061B0FD35CD840654B186000205F
:10071000FFF786FD002800D146E733E7002B19D00C
:10072000092122688A4313432360FFF7ADFD0700C8
:1007300004222368134207D062682B695B491B02BD
:100740000A40134363602FE7FFF79EFDC01B02289A
:10075000EED988E70122236893432360FFF794FDD5
:10076000070004222368134200D11DE7FFF78CFD28
:10077000C01B0228F5D976E7EB69002B20D0802337
:1007800022685B0013432360FFF77EFD0700802291
:100790002368920013420DD063683F4A13406A6A8F
:1007A0001343636062682B6A12021B06120A13432A
:1007B000636025E7FFF768FDC01B0228E7D952E711
:1007C00023683B4A13402360FFF75EFD0700802249
:1007D00023689200134200D112E7FFF755FDC01BBA
:1007E0000228F4D93FE76A690123002A10D0226D5C
:1007F00013432365FFF748FD07000222236D1342D0
:1008000000D001E7FFF740FDC01B0228F5D92AE719
:10081000226D9A432265FFF737FD07000222236D00
:10082000134200D1F0E6FFF72FFDC01B0228F5D9D7
:1008300019E780230021A26B5B0501911A4204D1C4
:10084000A26B1343A363012301938022194F52002B
:100850003B68134208D08022AB68520093422BD1F0
:10086000226D134323654CE080223B685200134302
:100870003B60FFF709FD80235B00029003933B6818
:10088000039A1342E7D1FFF7FFFC029BC01A6428CA
:10089000F5D9E8E600100240FF1FFFFF6C0E0008CC
:1008A00000000020FFFFFEFFFFFFFBFFFFE0FFFF58
:1008B000FFFEFFFF00700040002B16D1236D6A4A37
:1008C00013402365236D694A13402365FFF7DCFC61
:1008D00007008022236D920013422AD0FFF7D4FC38
:1008E000634BC01B9842F4D9BDE6A021C9008B42DE
:1008F0000BD18023216DDB000B432365236D1A434D
:100900002265FFF7C1FC07000EE0236D564A134035
:100910002365236D554A1340A4E7FFF7B5FC544BFC
:10092000C01B984200D99EE68022236D920013429C
:10093000F3D0019B012B00D06AE6A36B4D4A134014
:10094000A36365E6A96901234B4A002918D0A16871
:100950001943A160616B0B4363638023116A9B01A0
:100960000B431362FFF790FC07000222A3681342B7
:1009700000D051E6FFF788FCC01B0228F5D972E6CB
:10098000A1689943A160136A3C490B401362FFF7C9
:100990007BFC07000222A368134200D13CE6FFF76C
:1009A00073FCC01B0228F5D95DE60C2E43D0344AF7
:1009B000022B2ED12368802613402360FFF764FCAE
:1009C0000700B604236833421DD1296BEB6AE26845
:1009D0000B432C490A4013436A6B80251343E360A1
:1009E000802322685B0413432360FFF74DFC06005D
:1009F000AD0423682B4200D012E6FFF745FC801BB4
:100A00000228F6D92FE6FFF73FFCC01B0228D9D9F0
:100A100029E62368802513402360FFF735FC060094
:100A2000AD0423682B4200D1FAE5FFF72DFC801BB3
:100A30000228F6D917E68022E368E96A52021A40D2
:100A400001208A4200D09DE5F022296B92031A40D2
:100A50008A4200D096E5C02000040340686B181A53
:100A6000431E9841C0B28DE5FFFEFFFFFFFBFFFF75
:100A700088130000FFFFFFEF00000140FFDFFFFFD2
:100A8000FFFFFFFEFFFF02FFF7B5061E019101D138
:100A90000120FEBD0122514C0199236813408B4275
:100AA00027D3326893072FD4D30735D40123226884
:100AB00001991A40914200D281E03268484C5307B4
:100AC00000D584E0130706D5E26833694549DB00A9
:100AD0000A401343E360FFF713FDE368424A1B0635
:100AE0001B0FD35CD840414B18600020FFF798FBE8
:100AF000CFE72368019993430B4323602368134096
:100B0000019A9A42C4D1CCE7F0203549CB6883439F
:100B1000B0680343CB60C7E7314D72682B68022A87
:100B200019D19B03B4D50321EB688B431343EB60CE
:100B3000FFF7AAFB73680700022B19D10C22EB68A0
:100B40001340082BB2D0FFF79FFB294BC01B9842E4
:100B5000F4D903209DE7032A02D19B01E3D497E750
:100B6000012A02D15B07DED492E79B05DBD48FE735
:100B7000032B0BD10C22EB681340934296D0FFF766
:100B800083FB1B4BC01B9842F4D9E2E7012B10D02A
:100B90000C22EB68134289D0FFF776FB144BC01B85
:100BA0009842F5D9D5E7FFF76FFB114BC01B984270
:100BB000CFD80C22EB681340042BF4D176E72268DF
:100BC0009A43226022681A4200D061E775E7E36821
:100BD00008490B40F1680B43E36073E700200240D3
:100BE00000100240FFC7FFFF6C0E0008000000204D
:100BF00088130000FFF8FFFF802310B59B01984287
:100C000008D1A0202021C005FFF76AFCFA2080004F
:100C1000FFF740FB10BD000030B595B03822002131
:100C200006A800F00FF91422002101A800F00AF92B
:100C30001349144A0B6800241A4080231B011343F4
:100C40000B600223069310938023DB021293802310
:100C500010220125DB0306A80A921393099511942B
:100C6000FFF78AFC0F232900019301A80C3B029394
:100C7000039404940594FFF707FF15B030BDC046F8
:100C800000700040FFE7FFFF30B589B0FFF7E0FAE2
:100C9000FFF7C2FF1422002103A800F0D3F80420BC
:100CA000194B0124D96A00250143D962DA6A20214F
:100CB0000240A0200192019ADA6AC0052243DA625A
:100CC000DB6A002223400293029BFFF703FC802390
:100CD0009B0103930D4B03A90D4804930595FFF762
:100CE0003DFBA020202303A9C00503930494059590
:100CF0000694FFF733FB07202A002100FFF7DAFAFA
:100D00000720FFF707FBFEE700100240000021105C
:100D1000000800500122054B596B0A435A63802298
:100D2000996B52050A439A637047C046001002400F
:100D30007047FEE77047704710B5FFF79DFA10BD8A
:100D4000802010B58001FFF7CFFB10BD8022104B33
:100D5000520019680A431A60DA680E490A40DA60DC
:100D60001A680D490A4001211A609A688A439A60FC
:100D70001A680A490A401A60DA6809490A40DA60C2
:100D800000221A618022074B12059A607047C04604
:100D9000001002400C40FF88F6FFF6FEFFFFFBFF4D
:100DA000FFFF02FF00ED00E00D488546002103E053
:100DB0000C4B5B58435004310B480C4B42189A4281
:100DC000F6D30B4A02E0002313600432094B9A4227
:100DD000F9D3FFF7BBFF00F011F8FFF755FFFEE76F
:100DE00000500020900E00080000002004000020A9
:100DF0000400002024000020FEE7000070B500265B
:100E00000C4D0D4C641BA410A64209D1002600F025
:100E100021F80A4D0A4C641BA410A64205D170BDEE
:100E2000B300EB5898470136EEE7B300EB5898470C
:100E30000136F2E7880E0008880E0008880E0008C8
:100E40008C0E000803008218934200D1704719707D
:100E50000133F9E7F8B5C046F8BC08BC9E467047B8
:0C0E6000F8B5C046F8BC08BC9E467047C0
:100E6C00000000000000000001020304060708094E
:0C0E7C00030406080C10182030000000D1
:040E8800E900000875
:040E8C00C100000899
:040E9000000020003E
:0400000508000DA939
:00000001FF
